{
  "contractName": "BoneMarrowDonation",
  "abi": [
    {
      "inputs": [],
      "stateMutability": "nonpayable",
      "type": "constructor"
    },
    {
      "anonymous": false,
      "inputs": [
        {
          "indexed": true,
          "internalType": "address",
          "name": "donorAddress",
          "type": "address"
        },
        {
          "indexed": false,
          "internalType": "string",
          "name": "name",
          "type": "string"
        }
      ],
      "name": "DonorRegistered",
      "type": "event"
    },
    {
      "anonymous": false,
      "inputs": [
        {
          "indexed": true,
          "internalType": "address",
          "name": "donorAddress",
          "type": "address"
        },
        {
          "indexed": true,
          "internalType": "address",
          "name": "receiverAddress",
          "type": "address"
        }
      ],
      "name": "MatchFound",
      "type": "event"
    },
    {
      "anonymous": false,
      "inputs": [
        {
          "indexed": true,
          "internalType": "address",
          "name": "receiverAddress",
          "type": "address"
        },
        {
          "indexed": false,
          "internalType": "string",
          "name": "name",
          "type": "string"
        }
      ],
      "name": "ReceiverRegistered",
      "type": "event"
    },
    {
      "inputs": [],
      "name": "admin",
      "outputs": [
        {
          "internalType": "address",
          "name": "",
          "type": "address"
        }
      ],
      "stateMutability": "view",
      "type": "function"
    },
    {
      "inputs": [
        {
          "internalType": "uint256",
          "name": "",
          "type": "uint256"
        }
      ],
      "name": "donorList",
      "outputs": [
        {
          "internalType": "address",
          "name": "",
          "type": "address"
        }
      ],
      "stateMutability": "view",
      "type": "function"
    },
    {
      "inputs": [
        {
          "internalType": "address",
          "name": "",
          "type": "address"
        }
      ],
      "name": "donors",
      "outputs": [
        {
          "internalType": "address",
          "name": "walletAddress",
          "type": "address"
        },
        {
          "internalType": "string",
          "name": "name",
          "type": "string"
        },
        {
          "internalType": "uint256",
          "name": "age",
          "type": "uint256"
        },
        {
          "internalType": "string",
          "name": "bloodType",
          "type": "string"
        },
        {
          "internalType": "string",
          "name": "hlaMarkers",
          "type": "string"
        },
        {
          "internalType": "string",
          "name": "healthStatus",
          "type": "string"
        },
        {
          "internalType": "string",
          "name": "matchStatus",
          "type": "string"
        },
        {
          "internalType": "bool",
          "name": "isRegistered",
          "type": "bool"
        }
      ],
      "stateMutability": "view",
      "type": "function"
    },
    {
      "inputs": [
        {
          "internalType": "uint256",
          "name": "",
          "type": "uint256"
        }
      ],
      "name": "receiverList",
      "outputs": [
        {
          "internalType": "address",
          "name": "",
          "type": "address"
        }
      ],
      "stateMutability": "view",
      "type": "function"
    },
    {
      "inputs": [
        {
          "internalType": "address",
          "name": "",
          "type": "address"
        }
      ],
      "name": "receivers",
      "outputs": [
        {
          "internalType": "address",
          "name": "walletAddress",
          "type": "address"
        },
        {
          "internalType": "string",
          "name": "name",
          "type": "string"
        },
        {
          "internalType": "uint256",
          "name": "age",
          "type": "uint256"
        },
        {
          "internalType": "string",
          "name": "bloodType",
          "type": "string"
        },
        {
          "internalType": "string",
          "name": "hlaMarkers",
          "type": "string"
        },
        {
          "internalType": "string",
          "name": "condition",
          "type": "string"
        },
        {
          "internalType": "string",
          "name": "matchStatus",
          "type": "string"
        },
        {
          "internalType": "bool",
          "name": "isRegistered",
          "type": "bool"
        }
      ],
      "stateMutability": "view",
      "type": "function"
    },
    {
      "inputs": [
        {
          "internalType": "string",
          "name": "_name",
          "type": "string"
        },
        {
          "internalType": "uint256",
          "name": "_age",
          "type": "uint256"
        },
        {
          "internalType": "string",
          "name": "_bloodType",
          "type": "string"
        },
        {
          "internalType": "string",
          "name": "_hlaMarkers",
          "type": "string"
        },
        {
          "internalType": "string",
          "name": "_healthStatus",
          "type": "string"
        }
      ],
      "name": "registerDonor",
      "outputs": [],
      "stateMutability": "nonpayable",
      "type": "function"
    },
    {
      "inputs": [
        {
          "internalType": "string",
          "name": "_name",
          "type": "string"
        },
        {
          "internalType": "uint256",
          "name": "_age",
          "type": "uint256"
        },
        {
          "internalType": "string",
          "name": "_bloodType",
          "type": "string"
        },
        {
          "internalType": "string",
          "name": "_hlaMarkers",
          "type": "string"
        },
        {
          "internalType": "string",
          "name": "_condition",
          "type": "string"
        }
      ],
      "name": "registerReceiver",
      "outputs": [],
      "stateMutability": "nonpayable",
      "type": "function"
    },
    {
      "inputs": [
        {
          "internalType": "address",
          "name": "_donor",
          "type": "address"
        },
        {
          "internalType": "address",
          "name": "_receiver",
          "type": "address"
        }
      ],
      "name": "matchDonorToReceiver",
      "outputs": [],
      "stateMutability": "nonpayable",
      "type": "function"
    },
    {
      "inputs": [],
      "name": "getAllDonors",
      "outputs": [
        {
          "components": [
            {
              "internalType": "address",
              "name": "walletAddress",
              "type": "address"
            },
            {
              "internalType": "string",
              "name": "name",
              "type": "string"
            },
            {
              "internalType": "uint256",
              "name": "age",
              "type": "uint256"
            },
            {
              "internalType": "string",
              "name": "bloodType",
              "type": "string"
            },
            {
              "internalType": "string",
              "name": "hlaMarkers",
              "type": "string"
            },
            {
              "internalType": "string",
              "name": "healthStatus",
              "type": "string"
            },
            {
              "internalType": "string",
              "name": "matchStatus",
              "type": "string"
            },
            {
              "internalType": "bool",
              "name": "isRegistered",
              "type": "bool"
            }
          ],
          "internalType": "struct BoneMarrowDonation.Donor[]",
          "name": "",
          "type": "tuple[]"
        }
      ],
      "stateMutability": "view",
      "type": "function"
    },
    {
      "inputs": [],
      "name": "getAllReceivers",
      "outputs": [
        {
          "components": [
            {
              "internalType": "address",
              "name": "walletAddress",
              "type": "address"
            },
            {
              "internalType": "string",
              "name": "name",
              "type": "string"
            },
            {
              "internalType": "uint256",
              "name": "age",
              "type": "uint256"
            },
            {
              "internalType": "string",
              "name": "bloodType",
              "type": "string"
            },
            {
              "internalType": "string",
              "name": "hlaMarkers",
              "type": "string"
            },
            {
              "internalType": "string",
              "name": "condition",
              "type": "string"
            },
            {
              "internalType": "string",
              "name": "matchStatus",
              "type": "string"
            },
            {
              "internalType": "bool",
              "name": "isRegistered",
              "type": "bool"
            }
          ],
          "internalType": "struct BoneMarrowDonation.Receiver[]",
          "name": "",
          "type": "tuple[]"
        }
      ],
      "stateMutability": "view",
      "type": "function"
    }
  ],
  "bytecode": "0x608060405234801561001057600080fd5b5033600460006101000a81548173ffffffffffffffffffffffffffffffffffffffff021916908373ffffffffffffffffffffffffffffffffffffffff160217905550612cc1806100616000396000f3fe608060405234801561001057600080fd5b506004361061009e5760003560e01c806398e36b041161006657806398e36b0414610172578063c1cc701014610190578063ca0cdea8146101ae578063de5d7651146101e5578063f851a440146102015761009e565b80630cb8150f146100a35780633164cc5a146100da57806332502278146100f65780635b6f7b1d146101125780635eed3dcb14610142575b600080fd5b6100bd60048036038101906100b89190612041565b61021f565b6040516100d19897969594939291906127b3565b60405180910390f35b6100f460048036038101906100ef91906120a6565b61053c565b005b610110600480360381019061010b91906120a6565b610850565b005b61012c6004803603810190610127919061217d565b610b62565b6040516101399190612798565b60405180910390f35b61015c6004803603810190610157919061217d565b610ba1565b6040516101699190612798565b60405180910390f35b61017a610be0565b6040516101879190612854565b60405180910390f35b6101986110d7565b6040516101a59190612876565b60405180910390f35b6101c860048036038101906101c39190612041565b6115cf565b6040516101dc9897969594939291906127b3565b60405180910390f35b6101ff60048036038101906101fa919061206a565b6118ec565b005b610209611e2c565b6040516102169190612798565b60405180910390f35b60016020528060005260406000206000915090508060000160009054906101000a900473ffffffffffffffffffffffffffffffffffffffff169080600101805461026890612b44565b80601f016020809104026020016040519081016040528092919081815260200182805461029490612b44565b80156102e15780601f106102b6576101008083540402835291602001916102e1565b820191906000526020600020905b8154815290600101906020018083116102c457829003601f168201915b5050505050908060020154908060030180546102fc90612b44565b80601f016020809104026020016040519081016040528092919081815260200182805461032890612b44565b80156103755780601f1061034a57610100808354040283529160200191610375565b820191906000526020600020905b81548152906001019060200180831161035857829003601f168201915b50505050509080600401805461038a90612b44565b80601f01602080910402602001604051908101604052809291908181526020018280546103b690612b44565b80156104035780601f106103d857610100808354040283529160200191610403565b820191906000526020600020905b8154815290600101906020018083116103e657829003601f168201915b50505050509080600501805461041890612b44565b80601f016020809104026020016040519081016040528092919081815260200182805461044490612b44565b80156104915780601f1061046657610100808354040283529160200191610491565b820191906000526020600020905b81548152906001019060200180831161047457829003601f168201915b5050505050908060060180546104a690612b44565b80601f01602080910402602001604051908101604052809291908181526020018280546104d290612b44565b801561051f5780601f106104f45761010080835404028352916020019161051f565b820191906000526020600020905b81548152906001019060200180831161050257829003601f168201915b5050505050908060070160009054906101000a900460ff16905088565b600160003373ffffffffffffffffffffffffffffffffffffffff1673ffffffffffffffffffffffffffffffffffffffff16815260200190815260200160002060070160009054906101000a900460ff16156105cc576040517f08c379a00000000000000000000000000000000000000000000000000000000081526004016105c3906128fa565b60405180910390fd5b6040518061010001604052803373ffffffffffffffffffffffffffffffffffffffff1681526020018681526020018581526020018481526020018381526020018281526020016040518060400160405280600981526020017f556e6d6174636865640000000000000000000000000000000000000000000000815250815260200160011515815250600160003373ffffffffffffffffffffffffffffffffffffffff1673ffffffffffffffffffffffffffffffffffffffff16815260200190815260200160002060008201518160000160006101000a81548173ffffffffffffffffffffffffffffffffffffffff021916908373ffffffffffffffffffffffffffffffffffffffff16021790555060208201518160010190805190602001906106f6929190611e52565b5060408201518160020155606082015181600301908051906020019061071d929190611e52565b50608082015181600401908051906020019061073a929190611e52565b5060a0820151816005019080519060200190610757929190611e52565b5060c0820151816006019080519060200190610774929190611e52565b5060e08201518160070160006101000a81548160ff0219169083151502179055509050506003339080600181540180825580915050600190039060005260206000200160009091909190916101000a81548173ffffffffffffffffffffffffffffffffffffffff021916908373ffffffffffffffffffffffffffffffffffffffff1602179055503373ffffffffffffffffffffffffffffffffffffffff167f561c5243dbd8a9e1bee49c454e547c7e9c0125a046a17664c0ec02f03febce92866040516108419190612898565b60405180910390a25050505050565b6000803373ffffffffffffffffffffffffffffffffffffffff1673ffffffffffffffffffffffffffffffffffffffff16815260200190815260200160002060070160009054906101000a900460ff16156108df576040517f08c379a00000000000000000000000000000000000000000000000000000000081526004016108d6906128ba565b60405180910390fd5b6040518061010001604052803373ffffffffffffffffffffffffffffffffffffffff1681526020018681526020018581526020018481526020018381526020018281526020016040518060400160405280600981526020017f556e6d61746368656400000000000000000000000000000000000000000000008152508152602001600115158152506000803373ffffffffffffffffffffffffffffffffffffffff1673ffffffffffffffffffffffffffffffffffffffff16815260200190815260200160002060008201518160000160006101000a81548173ffffffffffffffffffffffffffffffffffffffff021916908373ffffffffffffffffffffffffffffffffffffffff1602179055506020820151816001019080519060200190610a08929190611e52565b50604082015181600201556060820151816003019080519060200190610a2f929190611e52565b506080820151816004019080519060200190610a4c929190611e52565b5060a0820151816005019080519060200190610a69929190611e52565b5060c0820151816006019080519060200190610a86929190611e52565b5060e08201518160070160006101000a81548160ff0219169083151502179055509050506002339080600181540180825580915050600190039060005260206000200160009091909190916101000a81548173ffffffffffffffffffffffffffffffffffffffff021916908373ffffffffffffffffffffffffffffffffffffffff1602179055503373ffffffffffffffffffffffffffffffffffffffff167ff6bba8a2d47514955cc8e64ea9127b51d5615832d1fbd20ec40275f0876cfcbf86604051610b539190612898565b60405180910390a25050505050565b60038181548110610b7257600080fd5b906000526020600020016000915054906101000a900473ffffffffffffffffffffffffffffffffffffffff1681565b60028181548110610bb157600080fd5b906000526020600020016000915054906101000a900473ffffffffffffffffffffffffffffffffffffffff1681565b6060600060028054905067ffffffffffffffff811115610c29577f4e487b7100000000000000000000000000000000000000000000000000000000600052604160045260246000fd5b604051908082528060200260200182016040528015610c6257816020015b610c4f611ed8565b815260200190600190039081610c475790505b50905060005b6002805490508110156110cf5760008060028381548110610cb2577f4e487b7100000000000000000000000000000000000000000000000000000000600052603260045260246000fd5b9060005260206000200160009054906101000a900473ffffffffffffffffffffffffffffffffffffffff1673ffffffffffffffffffffffffffffffffffffffff1673ffffffffffffffffffffffffffffffffffffffff168152602001908152602001600020604051806101000160405290816000820160009054906101000a900473ffffffffffffffffffffffffffffffffffffffff1673ffffffffffffffffffffffffffffffffffffffff1673ffffffffffffffffffffffffffffffffffffffff168152602001600182018054610d8990612b44565b80601f0160208091040260200160405190810160405280929190818152602001828054610db590612b44565b8015610e025780601f10610dd757610100808354040283529160200191610e02565b820191906000526020600020905b815481529060010190602001808311610de557829003601f168201915b5050505050815260200160028201548152602001600382018054610e2590612b44565b80601f0160208091040260200160405190810160405280929190818152602001828054610e5190612b44565b8015610e9e5780601f10610e7357610100808354040283529160200191610e9e565b820191906000526020600020905b815481529060010190602001808311610e8157829003601f168201915b50505050508152602001600482018054610eb790612b44565b80601f0160208091040260200160405190810160405280929190818152602001828054610ee390612b44565b8015610f305780601f10610f0557610100808354040283529160200191610f30565b820191906000526020600020905b815481529060010190602001808311610f1357829003601f168201915b50505050508152602001600582018054610f4990612b44565b80601f0160208091040260200160405190810160405280929190818152602001828054610f7590612b44565b8015610fc25780601f10610f9757610100808354040283529160200191610fc2565b820191906000526020600020905b815481529060010190602001808311610fa557829003601f168201915b50505050508152602001600682018054610fdb90612b44565b80601f016020809104026020016040519081016040528092919081815260200182805461100790612b44565b80156110545780601f1061102957610100808354040283529160200191611054565b820191906000526020600020905b81548152906001019060200180831161103757829003601f168201915b505050505081526020016007820160009054906101000a900460ff1615151515815250508282815181106110b1577f4e487b7100000000000000000000000000000000000000000000000000000000600052603260045260246000fd5b602002602001018190525080806110c790612b76565b915050610c68565b508091505090565b6060600060038054905067ffffffffffffffff811115611120577f4e487b7100000000000000000000000000000000000000000000000000000000600052604160045260246000fd5b60405190808252806020026020018201604052801561115957816020015b611146611f35565b81526020019060019003908161113e5790505b50905060005b6003805490508110156115c75760016000600383815481106111aa577f4e487b7100000000000000000000000000000000000000000000000000000000600052603260045260246000fd5b9060005260206000200160009054906101000a900473ffffffffffffffffffffffffffffffffffffffff1673ffffffffffffffffffffffffffffffffffffffff1673ffffffffffffffffffffffffffffffffffffffff168152602001908152602001600020604051806101000160405290816000820160009054906101000a900473ffffffffffffffffffffffffffffffffffffffff1673ffffffffffffffffffffffffffffffffffffffff1673ffffffffffffffffffffffffffffffffffffffff16815260200160018201805461128190612b44565b80601f01602080910402602001604051908101604052809291908181526020018280546112ad90612b44565b80156112fa5780601f106112cf576101008083540402835291602001916112fa565b820191906000526020600020905b8154815290600101906020018083116112dd57829003601f168201915b505050505081526020016002820154815260200160038201805461131d90612b44565b80601f016020809104026020016040519081016040528092919081815260200182805461134990612b44565b80156113965780601f1061136b57610100808354040283529160200191611396565b820191906000526020600020905b81548152906001019060200180831161137957829003601f168201915b505050505081526020016004820180546113af90612b44565b80601f01602080910402602001604051908101604052809291908181526020018280546113db90612b44565b80156114285780601f106113fd57610100808354040283529160200191611428565b820191906000526020600020905b81548152906001019060200180831161140b57829003601f168201915b5050505050815260200160058201805461144190612b44565b80601f016020809104026020016040519081016040528092919081815260200182805461146d90612b44565b80156114ba5780601f1061148f576101008083540402835291602001916114ba565b820191906000526020600020905b81548152906001019060200180831161149d57829003601f168201915b505050505081526020016006820180546114d390612b44565b80601f01602080910402602001604051908101604052809291908181526020018280546114ff90612b44565b801561154c5780601f106115215761010080835404028352916020019161154c565b820191906000526020600020905b81548152906001019060200180831161152f57829003601f168201915b505050505081526020016007820160009054906101000a900460ff1615151515815250508282815181106115a9577f4e487b7100000000000000000000000000000000000000000000000000000000600052603260045260246000fd5b602002602001018190525080806115bf90612b76565b91505061115f565b508091505090565b60006020528060005260406000206000915090508060000160009054906101000a900473ffffffffffffffffffffffffffffffffffffffff169080600101805461161890612b44565b80601f016020809104026020016040519081016040528092919081815260200182805461164490612b44565b80156116915780601f1061166657610100808354040283529160200191611691565b820191906000526020600020905b81548152906001019060200180831161167457829003601f168201915b5050505050908060020154908060030180546116ac90612b44565b80601f01602080910402602001604051908101604052809291908181526020018280546116d890612b44565b80156117255780601f106116fa57610100808354040283529160200191611725565b820191906000526020600020905b81548152906001019060200180831161170857829003601f168201915b50505050509080600401805461173a90612b44565b80601f016020809104026020016040519081016040528092919081815260200182805461176690612b44565b80156117b35780601f10611788576101008083540402835291602001916117b3565b820191906000526020600020905b81548152906001019060200180831161179657829003601f168201915b5050505050908060050180546117c890612b44565b80601f01602080910402602001604051908101604052809291908181526020018280546117f490612b44565b80156118415780601f1061181657610100808354040283529160200191611841565b820191906000526020600020905b81548152906001019060200180831161182457829003601f168201915b50505050509080600601805461185690612b44565b80601f016020809104026020016040519081016040528092919081815260200182805461188290612b44565b80156118cf5780601f106118a4576101008083540402835291602001916118cf565b820191906000526020600020905b8154815290600101906020018083116118b257829003601f168201915b5050505050908060070160009054906101000a900460ff16905088565b600460009054906101000a900473ffffffffffffffffffffffffffffffffffffffff1673ffffffffffffffffffffffffffffffffffffffff163373ffffffffffffffffffffffffffffffffffffffff161461197c576040517f08c379a00000000000000000000000000000000000000000000000000000000081526004016119739061295a565b60405180910390fd5b6000808373ffffffffffffffffffffffffffffffffffffffff1673ffffffffffffffffffffffffffffffffffffffff16815260200190815260200160002060070160009054906101000a900460ff16611a0a576040517f08c379a0000000000000000000000000000000000000000000000000000000008152600401611a019061297a565b60405180910390fd5b600160008273ffffffffffffffffffffffffffffffffffffffff1673ffffffffffffffffffffffffffffffffffffffff16815260200190815260200160002060070160009054906101000a900460ff16611a99576040517f08c379a0000000000000000000000000000000000000000000000000000000008152600401611a90906128da565b60405180910390fd5b600160008273ffffffffffffffffffffffffffffffffffffffff1673ffffffffffffffffffffffffffffffffffffffff168152602001908152602001600020600301604051602001611aeb9190612781565b604051602081830303815290604052805190602001206000808473ffffffffffffffffffffffffffffffffffffffff1673ffffffffffffffffffffffffffffffffffffffff168152602001908152602001600020600301604051602001611b529190612781565b6040516020818303038152906040528051906020012014611ba8576040517f08c379a0000000000000000000000000000000000000000000000000000000008152600401611b9f9061293a565b60405180910390fd5b600160008273ffffffffffffffffffffffffffffffffffffffff1673ffffffffffffffffffffffffffffffffffffffff168152602001908152602001600020600401604051602001611bfa9190612781565b604051602081830303815290604052805190602001206000808473ffffffffffffffffffffffffffffffffffffffff1673ffffffffffffffffffffffffffffffffffffffff168152602001908152602001600020600401604051602001611c619190612781565b6040516020818303038152906040528051906020012014611cb7576040517f08c379a0000000000000000000000000000000000000000000000000000000008152600401611cae9061291a565b60405180910390fd5b6040518060400160405280600781526020017f4d617463686564000000000000000000000000000000000000000000000000008152506000808473ffffffffffffffffffffffffffffffffffffffff1673ffffffffffffffffffffffffffffffffffffffff1681526020019081526020016000206006019080519060200190611d41929190611e52565b506040518060400160405280600781526020017f4d61746368656400000000000000000000000000000000000000000000000000815250600160008373ffffffffffffffffffffffffffffffffffffffff1673ffffffffffffffffffffffffffffffffffffffff1681526020019081526020016000206006019080519060200190611dcd929190611e52565b508073ffffffffffffffffffffffffffffffffffffffff168273ffffffffffffffffffffffffffffffffffffffff167f3182b38841de065eded850f9e9fa30850bb37c3a57df9bef3841138a94b7295660405160405180910390a35050565b600460009054906101000a900473ffffffffffffffffffffffffffffffffffffffff1681565b828054611e5e90612b44565b90600052602060002090601f016020900481019282611e805760008555611ec7565b82601f10611e9957805160ff1916838001178555611ec7565b82800160010185558215611ec7579182015b82811115611ec6578251825591602001919060010190611eab565b5b509050611ed49190611f92565b5090565b604051806101000160405280600073ffffffffffffffffffffffffffffffffffffffff1681526020016060815260200160008152602001606081526020016060815260200160608152602001606081526020016000151581525090565b604051806101000160405280600073ffffffffffffffffffffffffffffffffffffffff1681526020016060815260200160008152602001606081526020016060815260200160608152602001606081526020016000151581525090565b5b80821115611fab576000816000905550600101611f93565b5090565b6000611fc2611fbd846129cb565b61299a565b905082815260208101848484011115611fda57600080fd5b611fe5848285612b02565b509392505050565b600081359050611ffc81612c5d565b92915050565b600082601f83011261201357600080fd5b8135612023848260208601611faf565b91505092915050565b60008135905061203b81612c74565b92915050565b60006020828403121561205357600080fd5b600061206184828501611fed565b91505092915050565b6000806040838503121561207d57600080fd5b600061208b85828601611fed565b925050602061209c85828601611fed565b9150509250929050565b600080600080600060a086880312156120be57600080fd5b600086013567ffffffffffffffff8111156120d857600080fd5b6120e488828901612002565b95505060206120f58882890161202c565b945050604086013567ffffffffffffffff81111561211257600080fd5b61211e88828901612002565b935050606086013567ffffffffffffffff81111561213b57600080fd5b61214788828901612002565b925050608086013567ffffffffffffffff81111561216457600080fd5b61217088828901612002565b9150509295509295909350565b60006020828403121561218f57600080fd5b600061219d8482850161202c565b91505092915050565b60006121b283836125cb565b905092915050565b60006121c68383612697565b905092915050565b6121d781612aba565b82525050565b6121e681612aba565b82525050565b60006121f782612a30565b6122018185612a6b565b935083602082028501612213856129fb565b8060005b8581101561224f578484038952815161223085826121a6565b945061223b83612a51565b925060208a01995050600181019050612217565b50829750879550505050505092915050565b600061226c82612a3b565b6122768185612a7c565b93508360208202850161228885612a0b565b8060005b858110156122c457848403895281516122a585826121ba565b94506122b083612a5e565b925060208a0199505060018101905061228c565b50829750879550505050505092915050565b6122df81612acc565b82525050565b6122ee81612acc565b82525050565b60006122ff82612a46565b6123098185612a8d565b9350612319818560208601612b11565b61232281612c4c565b840191505092915050565b600061233882612a46565b6123428185612a9e565b9350612352818560208601612b11565b61235b81612c4c565b840191505092915050565b6000815461237381612b44565b61237d8186612aaf565b9450600182166000811461239857600181146123a9576123dc565b60ff198316865281860193506123dc565b6123b285612a1b565b60005b838110156123d4578154818901526001820191506020810190506123b5565b838801955050505b50505092915050565b60006123f2601c83612a9e565b91507f446f6e6f7220697320616c726561647920726567697374657265642e000000006000830152602082019050919050565b6000612432601b83612a9e565b91507f5265636569766572206973206e6f7420726567697374657265642e00000000006000830152602082019050919050565b6000612472601f83612a9e565b91507f526563656976657220697320616c726561647920726567697374657265642e006000830152602082019050919050565b60006124b2601983612a9e565b91507f484c41206d61726b65727320646f206e6f74206d617463682e000000000000006000830152602082019050919050565b60006124f2601a83612a9e565b91507f426c6f6f64207479706520646f6573206e6f74206d617463682e0000000000006000830152602082019050919050565b6000612532602783612a9e565b91507f4f6e6c79207468652061646d696e2063616e20706572666f726d20746869732060008301527f616374696f6e2e000000000000000000000000000000000000000000000000006020830152604082019050919050565b6000612598601883612a9e565b91507f446f6e6f72206973206e6f7420726567697374657265642e00000000000000006000830152602082019050919050565b6000610100830160008301516125e460008601826121ce565b50602083015184820360208601526125fc82826122f4565b91505060408301516126116040860182612763565b506060830151848203606086015261262982826122f4565b9150506080830151848203608086015261264382826122f4565b91505060a083015184820360a086015261265d82826122f4565b91505060c083015184820360c086015261267782826122f4565b91505060e083015161268c60e08601826122d6565b508091505092915050565b6000610100830160008301516126b060008601826121ce565b50602083015184820360208601526126c882826122f4565b91505060408301516126dd6040860182612763565b50606083015184820360608601526126f582826122f4565b9150506080830151848203608086015261270f82826122f4565b91505060a083015184820360a086015261272982826122f4565b91505060c083015184820360c086015261274382826122f4565b91505060e083015161275860e08601826122d6565b508091505092915050565b61276c81612af8565b82525050565b61277b81612af8565b82525050565b600061278d8284612366565b915081905092915050565b60006020820190506127ad60008301846121dd565b92915050565b6000610100820190506127c9600083018b6121dd565b81810360208301526127db818a61232d565b90506127ea6040830189612772565b81810360608301526127fc818861232d565b90508181036080830152612810818761232d565b905081810360a0830152612824818661232d565b905081810360c0830152612838818561232d565b905061284760e08301846122e5565b9998505050505050505050565b6000602082019050818103600083015261286e81846121ec565b905092915050565b600060208201905081810360008301526128908184612261565b905092915050565b600060208201905081810360008301526128b2818461232d565b905092915050565b600060208201905081810360008301526128d3816123e5565b9050919050565b600060208201905081810360008301526128f381612425565b9050919050565b6000602082019050818103600083015261291381612465565b9050919050565b60006020820190508181036000830152612933816124a5565b9050919050565b60006020820190508181036000830152612953816124e5565b9050919050565b6000602082019050818103600083015261297381612525565b9050919050565b600060208201905081810360008301526129938161258b565b9050919050565b6000604051905081810181811067ffffffffffffffff821117156129c1576129c0612c1d565b5b8060405250919050565b600067ffffffffffffffff8211156129e6576129e5612c1d565b5b601f19601f8301169050602081019050919050565b6000819050602082019050919050565b6000819050602082019050919050565b60008190508160005260206000209050919050565b600081519050919050565b600081519050919050565b600081519050919050565b6000602082019050919050565b6000602082019050919050565b600082825260208201905092915050565b600082825260208201905092915050565b600082825260208201905092915050565b600082825260208201905092915050565b600081905092915050565b6000612ac582612ad8565b9050919050565b60008115159050919050565b600073ffffffffffffffffffffffffffffffffffffffff82169050919050565b6000819050919050565b82818337600083830152505050565b60005b83811015612b2f578082015181840152602081019050612b14565b83811115612b3e576000848401525b50505050565b60006002820490506001821680612b5c57607f821691505b60208210811415612b7057612b6f612bee565b5b50919050565b6000612b8182612af8565b91507fffffffffffffffffffffffffffffffffffffffffffffffffffffffffffffffff821415612bb457612bb3612bbf565b5b600182019050919050565b7f4e487b7100000000000000000000000000000000000000000000000000000000600052601160045260246000fd5b7f4e487b7100000000000000000000000000000000000000000000000000000000600052602260045260246000fd5b7f4e487b7100000000000000000000000000000000000000000000000000000000600052604160045260246000fd5b6000601f19601f8301169050919050565b612c6681612aba565b8114612c7157600080fd5b50565b612c7d81612af8565b8114612c8857600080fd5b5056fea264697066735822122086974766e5f8dba9e13bb2aac97d3918746640b9454696c0bf0b936972dbf7fe64736f6c63430008000033",
  "immutableReferences": {},
  "source": "// SPDX-License-Identifier: MIT\r\npragma solidity ^0.8.0;\r\n\r\ncontract BoneMarrowDonation {\r\n    // Struct for storing donor details\r\n    struct Donor {\r\n        address walletAddress;\r\n        string name;\r\n        uint256 age;\r\n        string bloodType;\r\n        string hlaMarkers;\r\n        string healthStatus;\r\n        string matchStatus; // e.g., \"Matched\" or \"Unmatched\"\r\n        bool isRegistered;\r\n    }\r\n\r\n    // Struct for storing receiver details\r\n    struct Receiver {\r\n        address walletAddress;\r\n        string name;\r\n        uint256 age;\r\n        string bloodType;\r\n        string hlaMarkers;\r\n        string condition; // Disease requiring transplant\r\n        string matchStatus; // e.g., \"Matched\" or \"Unmatched\"\r\n        bool isRegistered;\r\n    }\r\n\r\n    // Events\r\n    event DonorRegistered(address indexed donorAddress, string name);\r\n    event ReceiverRegistered(address indexed receiverAddress, string name);\r\n    event MatchFound(address indexed donorAddress, address indexed receiverAddress);\r\n\r\n    // Mappings for storing donors and receivers\r\n    mapping(address => Donor) public donors;\r\n    mapping(address => Receiver) public receivers;\r\n\r\n    // List of all donors and receivers for admin access\r\n    address[] public donorList;\r\n    address[] public receiverList;\r\n\r\n    // Modifier to check admin privileges\r\n    address public admin;\r\n\r\n    modifier onlyAdmin() {\r\n        require(msg.sender == admin, \"Only the admin can perform this action.\");\r\n        _;\r\n    }\r\n\r\n    constructor() {\r\n        admin = msg.sender; // Set the contract deployer as the admin\r\n    }\r\n\r\n    // Function for donors to register\r\n    function registerDonor(\r\n        string memory _name,\r\n        uint256 _age,\r\n        string memory _bloodType,\r\n        string memory _hlaMarkers,\r\n        string memory _healthStatus\r\n    ) public {\r\n        require(!donors[msg.sender].isRegistered, \"Donor is already registered.\");\r\n        donors[msg.sender] = Donor({\r\n            walletAddress: msg.sender,\r\n            name: _name,\r\n            age: _age,\r\n            bloodType: _bloodType,\r\n            hlaMarkers: _hlaMarkers,\r\n            healthStatus: _healthStatus,\r\n            matchStatus: \"Unmatched\",\r\n            isRegistered: true\r\n        });\r\n        donorList.push(msg.sender);\r\n        emit DonorRegistered(msg.sender, _name);\r\n    }\r\n\r\n    // Function for receivers to register\r\n    function registerReceiver(\r\n        string memory _name,\r\n        uint256 _age,\r\n        string memory _bloodType,\r\n        string memory _hlaMarkers,\r\n        string memory _condition\r\n    ) public {\r\n        require(!receivers[msg.sender].isRegistered, \"Receiver is already registered.\");\r\n        receivers[msg.sender] = Receiver({\r\n            walletAddress: msg.sender,\r\n            name: _name,\r\n            age: _age,\r\n            bloodType: _bloodType,\r\n            hlaMarkers: _hlaMarkers,\r\n            condition: _condition,\r\n            matchStatus: \"Unmatched\",\r\n            isRegistered: true\r\n        });\r\n        receiverList.push(msg.sender);\r\n        emit ReceiverRegistered(msg.sender, _name);\r\n    }\r\n\r\n    // Admin function to match donors and receivers\r\n    function matchDonorToReceiver(address _donor, address _receiver) public onlyAdmin {\r\n        require(donors[_donor].isRegistered, \"Donor is not registered.\");\r\n        require(receivers[_receiver].isRegistered, \"Receiver is not registered.\");\r\n        require(\r\n            keccak256(abi.encodePacked(donors[_donor].bloodType)) ==\r\n            keccak256(abi.encodePacked(receivers[_receiver].bloodType)),\r\n            \"Blood type does not match.\"\r\n        );\r\n        require(\r\n            keccak256(abi.encodePacked(donors[_donor].hlaMarkers)) ==\r\n            keccak256(abi.encodePacked(receivers[_receiver].hlaMarkers)),\r\n            \"HLA markers do not match.\"\r\n        );\r\n\r\n        donors[_donor].matchStatus = \"Matched\";\r\n        receivers[_receiver].matchStatus = \"Matched\";\r\n\r\n        emit MatchFound(_donor, _receiver);\r\n    }\r\n\r\n    // Function to get all donors\r\n    function getAllDonors() public view returns (Donor[] memory) {\r\n        Donor[] memory donorArray = new Donor[](donorList.length);\r\n        for (uint256 i = 0; i < donorList.length; i++) {\r\n            donorArray[i] = donors[donorList[i]];\r\n        }\r\n        return donorArray;\r\n    }\r\n\r\n    // Function to get all receivers\r\n    function getAllReceivers() public view returns (Receiver[] memory) {\r\n        Receiver[] memory receiverArray = new Receiver[](receiverList.length);\r\n        for (uint256 i = 0; i < receiverList.length; i++) {\r\n            receiverArray[i] = receivers[receiverList[i]];\r\n        }\r\n        return receiverArray;\r\n    }\r\n}\r\n",
  "sourcePath": "C:\\Users\\parichoy nandi\\Desktop\\bc\\blockchain-project\\contracts\\BoneMarrowDonation.sol",
  "compiler": {
    "name": "solc",
    "version": "0.8.0+commit.c7dfd78e.Emscripten.clang"
  },
  "schemaVersion": "3.4.16",
  "updatedAt": "2025-03-04T06:22:43.761Z",
  "devdoc": {
    "kind": "dev",
    "methods": {},
    "version": 1
  },
  "userdoc": {
    "kind": "user",
    "methods": {},
    "version": 1
  }
}